{"abi":[{"type":"constructor","inputs":[],"stateMutability":"nonpayable"},{"type":"function","name":"addAdmin","inputs":[{"name":"walletAddress","type":"address","internalType":"address"},{"name":"name","type":"string","internalType":"string"}],"outputs":[],"stateMutability":"nonpayable"},{"type":"function","name":"addPlayer","inputs":[{"name":"walletAddress","type":"address","internalType":"address"},{"name":"score","type":"uint256","internalType":"uint256"}],"outputs":[],"stateMutability":"nonpayable"},{"type":"function","name":"admins","inputs":[{"name":"","type":"uint256","internalType":"uint256"}],"outputs":[{"name":"walletAddress","type":"address","internalType":"address"},{"name":"name","type":"string","internalType":"string"},{"name":"joinDate","type":"uint256","internalType":"uint256"},{"name":"isActive","type":"bool","internalType":"bool"}],"stateMutability":"view"},{"type":"function","name":"awardPointsBatch","inputs":[{"name":"addresses","type":"address[]","internalType":"address[]"},{"name":"amounts","type":"uint256[]","internalType":"uint256[]"},{"name":"reason","type":"string","internalType":"string"}],"outputs":[],"stateMutability":"nonpayable"},{"type":"function","name":"getAdminByAddress","inputs":[{"name":"addr","type":"address","internalType":"address"}],"outputs":[{"name":"","type":"tuple","internalType":"struct FightOnChain.Admin","components":[{"name":"walletAddress","type":"address","internalType":"address"},{"name":"name","type":"string","internalType":"string"},{"name":"joinDate","type":"uint256","internalType":"uint256"},{"name":"isActive","type":"bool","internalType":"bool"}]}],"stateMutability":"view"},{"type":"function","name":"getAdmins","inputs":[],"outputs":[{"name":"","type":"address[]","internalType":"address[]"}],"stateMutability":"view"},{"type":"function","name":"getPlayers","inputs":[],"outputs":[{"name":"","type":"tuple[]","internalType":"struct FightOnChain.Player[]","components":[{"name":"walletAddress","type":"address","internalType":"address"},{"name":"score","type":"uint256","internalType":"uint256"}]}],"stateMutability":"view"},{"type":"function","name":"isAdmin","inputs":[{"name":"","type":"address","internalType":"address"}],"outputs":[{"name":"","type":"bool","internalType":"bool"}],"stateMutability":"view"},{"type":"function","name":"players","inputs":[{"name":"","type":"uint256","internalType":"uint256"}],"outputs":[{"name":"walletAddress","type":"address","internalType":"address"},{"name":"score","type":"uint256","internalType":"uint256"}],"stateMutability":"view"},{"type":"function","name":"removeAdmin","inputs":[{"name":"walletAddress","type":"address","internalType":"address"}],"outputs":[],"stateMutability":"nonpayable"},{"type":"function","name":"updatePlayerScore","inputs":[{"name":"walletAddress","type":"address","internalType":"address"},{"name":"score","type":"uint256","internalType":"uint256"}],"outputs":[],"stateMutability":"nonpayable"},{"type":"event","name":"PointsAwardedBatch","inputs":[{"name":"admin","type":"address","indexed":true,"internalType":"address"},{"name":"addresses","type":"address[]","indexed":false,"internalType":"address[]"},{"name":"amounts","type":"uint256[]","indexed":false,"internalType":"uint256[]"},{"name":"reason","type":"string","indexed":false,"internalType":"string"},{"name":"timestamp","type":"uint256","indexed":false,"internalType":"uint256"}],"anonymous":false}],"bytecode":{"object":"0x608060405234801561000f575f5ffd5b505f73e19496e993f05ec1b03d1d456df6b8227e50dea19050600160025f8373ffffffffffffffffffffffffffffffffffffffff1673ffffffffffffffffffffffffffffffffffffffff1681526020019081526020015f205f6101000a81548160ff0219169083151502179055505f60405180608001604052808373ffffffffffffffffffffffffffffffffffffffff1681526020016040518060400160405280600681526020017f5368726979610000000000000000000000000000000000000000000000000000815250815260200142815260200160011515815250908060018154018082558091505060019003905f5260205f2090600402015f909190919091505f820151815f015f6101000a81548173ffffffffffffffffffffffffffffffffffffffff021916908373ffffffffffffffffffffffffffffffffffffffff160217905550602082015181600101908161016c91906103db565b50604082015181600201556060820151816003015f6101000a81548160ff0219169083151502179055505050506104aa565b5f81519050919050565b7f4e487b71000000000000000000000000000000000000000000000000000000005f52604160045260245ffd5b7f4e487b71000000000000000000000000000000000000000000000000000000005f52602260045260245ffd5b5f600282049050600182168061021957607f821691505b60208210810361022c5761022b6101d5565b5b50919050565b5f819050815f5260205f209050919050565b5f6020601f8301049050919050565b5f82821b905092915050565b5f6008830261028e7fffffffffffffffffffffffffffffffffffffffffffffffffffffffffffffffff82610253565b6102988683610253565b95508019841693508086168417925050509392505050565b5f819050919050565b5f819050919050565b5f6102dc6102d76102d2846102b0565b6102b9565b6102b0565b9050919050565b5f819050919050565b6102f5836102c2565b610309610301826102e3565b84845461025f565b825550505050565b5f5f905090565b610320610311565b61032b8184846102ec565b505050565b5b8181101561034e576103435f82610318565b600181019050610331565b5050565b601f8211156103935761036481610232565b61036d84610244565b8101602085101561037c578190505b61039061038885610244565b830182610330565b50505b505050565b5f82821c905092915050565b5f6103b35f1984600802610398565b1980831691505092915050565b5f6103cb83836103a4565b9150826002028217905092915050565b6103e48261019e565b67ffffffffffffffff8111156103fd576103fc6101a8565b5b6104078254610202565b610412828285610352565b5f60209050601f831160018114610443575f8415610431578287015190505b61043b85826103c0565b8655506104a2565b601f19841661045186610232565b5f5b8281101561047857848901518255600182019150602085019450602081019050610453565b868310156104955784890151610491601f8916826103a4565b8355505b6001600288020188555050505b505050505050565b6120db806104b75f395ff3fe608060405234801561000f575f5ffd5b50600436106100a7575f3560e01c806336440f451161006f57806336440f45146101645780636fd075fc146101945780638b5b9ccc146101b057806393f5b241146101ce578063d16856ca146101ea578063f71d96cb14610206576100a7565b806314bfd6d0146100ab5780631785f53c146100de57806324d7806c146100fa57806330d625dc1461012a57806331ae450b14610146575b5f5ffd5b6100c560048036038101906100c09190611157565b610237565b6040516100d5949392919061125a565b60405180910390f35b6100f860048036038101906100f391906112ce565b610322565b005b610114600480360381019061010f91906112ce565b6104ce565b60405161012191906112f9565b60405180910390f35b610144600480360381019061013f91906115c2565b6104eb565b005b61014e61066b565b60405161015b919061171d565b60405180910390f35b61017e600480360381019061017991906112ce565b61081c565b60405161018b9190611803565b60405180910390f35b6101ae60048036038101906101a99190611823565b610af1565b005b6101b8610c21565b6040516101c59190611936565b60405180910390f35b6101e860048036038101906101e39190611823565b610cdb565b005b61020460048036038101906101ff9190611956565b610e36565b005b610220600480360381019061021b9190611157565b611088565b60405161022e9291906119b0565b60405180910390f35b5f8181548110610245575f80fd5b905f5260205f2090600402015f91509050805f015f9054906101000a900473ffffffffffffffffffffffffffffffffffffffff169080600101805461028990611a04565b80601f01602080910402602001604051908101604052809291908181526020018280546102b590611a04565b80156103005780601f106102d757610100808354040283529160200191610300565b820191905f5260205f20905b8154815290600101906020018083116102e357829003601f168201915b505050505090806002015490806003015f9054906101000a900460ff16905084565b60025f3373ffffffffffffffffffffffffffffffffffffffff1673ffffffffffffffffffffffffffffffffffffffff1681526020019081526020015f205f9054906101000a900460ff166103ab576040517f08c379a00000000000000000000000000000000000000000000000000000000081526004016103a290611aa4565b60405180910390fd5b5f60025f8373ffffffffffffffffffffffffffffffffffffffff1673ffffffffffffffffffffffffffffffffffffffff1681526020019081526020015f205f6101000a81548160ff0219169083151502179055505f5f90505b5f805490508110156104ca578173ffffffffffffffffffffffffffffffffffffffff165f828154811061043a57610439611ac2565b5b905f5260205f2090600402015f015f9054906101000a900473ffffffffffffffffffffffffffffffffffffffff1673ffffffffffffffffffffffffffffffffffffffff16036104bd575f5f828154811061049757610496611ac2565b5b905f5260205f2090600402016003015f6101000a81548160ff0219169083151502179055505b8080600101915050610404565b5050565b6002602052805f5260405f205f915054906101000a900460ff1681565b60025f3373ffffffffffffffffffffffffffffffffffffffff1673ffffffffffffffffffffffffffffffffffffffff1681526020019081526020015f205f9054906101000a900460ff16610574576040517f08c379a000000000000000000000000000000000000000000000000000000000815260040161056b90611aa4565b60405180910390fd5b81518351146105b8576040517f08c379a00000000000000000000000000000000000000000000000000000000081526004016105af90611b39565b60405180910390fd5b5f5f90505b8351811015610611576106048482815181106105dc576105db611ac2565b5b60200260200101518483815181106105f7576105f6611ac2565b5b6020026020010151610cdb565b80806001019150506105bd565b503373ffffffffffffffffffffffffffffffffffffffff167f36404b56b83097cdf4161b9c2c1678b24ea48fa45342962742dde2555dd02c088484844260405161065e9493929190611bff565b60405180910390a2505050565b60605f5f90505f5f90505b5f805490508110156106d2575f818154811061069557610694611ac2565b5b905f5260205f2090600402016003015f9054906101000a900460ff16156106c55781806106c190611c84565b9250505b8080600101915050610676565b505f8167ffffffffffffffff8111156106ee576106ed611316565b5b60405190808252806020026020018201604052801561071c5781602001602082028036833780820191505090505b5090505f5f90505f5f90505b5f80549050811015610812575f818154811061074757610746611ac2565b5b905f5260205f2090600402016003015f9054906101000a900460ff1615610805575f818154811061077b5761077a611ac2565b5b905f5260205f2090600402015f015f9054906101000a900473ffffffffffffffffffffffffffffffffffffffff168383815181106107bc576107bb611ac2565b5b602002602001019073ffffffffffffffffffffffffffffffffffffffff16908173ffffffffffffffffffffffffffffffffffffffff1681525050818061080190611c84565b9250505b8080600101915050610728565b5081935050505090565b6108246110d6565b60025f8373ffffffffffffffffffffffffffffffffffffffff1673ffffffffffffffffffffffffffffffffffffffff1681526020019081526020015f205f9054906101000a900460ff166108ad576040517f08c379a00000000000000000000000000000000000000000000000000000000081526004016108a490611d15565b60405180910390fd5b5f5f90505b5f80549050811015610ab0578273ffffffffffffffffffffffffffffffffffffffff165f82815481106108e8576108e7611ac2565b5b905f5260205f2090600402015f015f9054906101000a900473ffffffffffffffffffffffffffffffffffffffff1673ffffffffffffffffffffffffffffffffffffffff1614801561096457505f818154811061094757610946611ac2565b5b905f5260205f2090600402016003015f9054906101000a900460ff165b15610aa3575f818154811061097c5761097b611ac2565b5b905f5260205f2090600402016040518060800160405290815f82015f9054906101000a900473ffffffffffffffffffffffffffffffffffffffff1673ffffffffffffffffffffffffffffffffffffffff1673ffffffffffffffffffffffffffffffffffffffff1681526020016001820180546109f790611a04565b80601f0160208091040260200160405190810160405280929190818152602001828054610a2390611a04565b8015610a6e5780601f10610a4557610100808354040283529160200191610a6e565b820191905f5260205f20905b815481529060010190602001808311610a5157829003601f168201915b5050505050815260200160028201548152602001600382015f9054906101000a900460ff161515151581525050915050610aec565b80806001019150506108b2565b506040517f08c379a0000000000000000000000000000000000000000000000000000000008152600401610ae390611d7d565b60405180910390fd5b919050565b60025f3373ffffffffffffffffffffffffffffffffffffffff1673ffffffffffffffffffffffffffffffffffffffff1681526020019081526020015f205f9054906101000a900460ff16610b7a576040517f08c379a0000000000000000000000000000000000000000000000000000000008152600401610b7190611aa4565b60405180910390fd5b600160405180604001604052808473ffffffffffffffffffffffffffffffffffffffff16815260200183815250908060018154018082558091505060019003905f5260205f2090600202015f909190919091505f820151815f015f6101000a81548173ffffffffffffffffffffffffffffffffffffffff021916908373ffffffffffffffffffffffffffffffffffffffff1602179055506020820151816001015550505050565b60606001805480602002602001604051908101604052809291908181526020015f905b82821015610cd2578382905f5260205f2090600202016040518060400160405290815f82015f9054906101000a900473ffffffffffffffffffffffffffffffffffffffff1673ffffffffffffffffffffffffffffffffffffffff1673ffffffffffffffffffffffffffffffffffffffff16815260200160018201548152505081526020019060010190610c44565b50505050905090565b60025f3373ffffffffffffffffffffffffffffffffffffffff1673ffffffffffffffffffffffffffffffffffffffff1681526020019081526020015f205f9054906101000a900460ff16610d64576040517f08c379a0000000000000000000000000000000000000000000000000000000008152600401610d5b90611aa4565b60405180910390fd5b5f5f90505b600180549050811015610e31578273ffffffffffffffffffffffffffffffffffffffff1660018281548110610da157610da0611ac2565b5b905f5260205f2090600202015f015f9054906101000a900473ffffffffffffffffffffffffffffffffffffffff1673ffffffffffffffffffffffffffffffffffffffff1603610e24578160018281548110610dff57610dfe611ac2565b5b905f5260205f2090600202016001015f828254610e1c9190611d9b565b925050819055505b8080600101915050610d69565b505050565b60025f3373ffffffffffffffffffffffffffffffffffffffff1673ffffffffffffffffffffffffffffffffffffffff1681526020019081526020015f205f9054906101000a900460ff16610ebf576040517f08c379a0000000000000000000000000000000000000000000000000000000008152600401610eb690611aa4565b60405180910390fd5b60025f8373ffffffffffffffffffffffffffffffffffffffff1673ffffffffffffffffffffffffffffffffffffffff1681526020019081526020015f205f9054906101000a900460ff1615610f49576040517f08c379a0000000000000000000000000000000000000000000000000000000008152600401610f4090611e18565b60405180910390fd5b600160025f8473ffffffffffffffffffffffffffffffffffffffff1673ffffffffffffffffffffffffffffffffffffffff1681526020019081526020015f205f6101000a81548160ff0219169083151502179055505f60405180608001604052808473ffffffffffffffffffffffffffffffffffffffff16815260200183815260200142815260200160011515815250908060018154018082558091505060019003905f5260205f2090600402015f909190919091505f820151815f015f6101000a81548173ffffffffffffffffffffffffffffffffffffffff021916908373ffffffffffffffffffffffffffffffffffffffff16021790555060208201518160010190816110589190611fd6565b50604082015181600201556060820151816003015f6101000a81548160ff02191690831515021790555050505050565b60018181548110611097575f80fd5b905f5260205f2090600202015f91509050805f015f9054906101000a900473ffffffffffffffffffffffffffffffffffffffff16908060010154905082565b60405180608001604052805f73ffffffffffffffffffffffffffffffffffffffff168152602001606081526020015f81526020015f151581525090565b5f604051905090565b5f5ffd5b5f5ffd5b5f819050919050565b61113681611124565b8114611140575f5ffd5b50565b5f813590506111518161112d565b92915050565b5f6020828403121561116c5761116b61111c565b5b5f61117984828501611143565b91505092915050565b5f73ffffffffffffffffffffffffffffffffffffffff82169050919050565b5f6111ab82611182565b9050919050565b6111bb816111a1565b82525050565b5f81519050919050565b5f82825260208201905092915050565b8281835e5f83830152505050565b5f601f19601f8301169050919050565b5f611203826111c1565b61120d81856111cb565b935061121d8185602086016111db565b611226816111e9565b840191505092915050565b61123a81611124565b82525050565b5f8115159050919050565b61125481611240565b82525050565b5f60808201905061126d5f8301876111b2565b818103602083015261127f81866111f9565b905061128e6040830185611231565b61129b606083018461124b565b95945050505050565b6112ad816111a1565b81146112b7575f5ffd5b50565b5f813590506112c8816112a4565b92915050565b5f602082840312156112e3576112e261111c565b5b5f6112f0848285016112ba565b91505092915050565b5f60208201905061130c5f83018461124b565b92915050565b5f5ffd5b7f4e487b71000000000000000000000000000000000000000000000000000000005f52604160045260245ffd5b61134c826111e9565b810181811067ffffffffffffffff8211171561136b5761136a611316565b5b80604052505050565b5f61137d611113565b90506113898282611343565b919050565b5f67ffffffffffffffff8211156113a8576113a7611316565b5b602082029050602081019050919050565b5f5ffd5b5f6113cf6113ca8461138e565b611374565b905080838252602082019050602084028301858111156113f2576113f16113b9565b5b835b8181101561141b578061140788826112ba565b8452602084019350506020810190506113f4565b5050509392505050565b5f82601f83011261143957611438611312565b5b81356114498482602086016113bd565b91505092915050565b5f67ffffffffffffffff82111561146c5761146b611316565b5b602082029050602081019050919050565b5f61148f61148a84611452565b611374565b905080838252602082019050602084028301858111156114b2576114b16113b9565b5b835b818110156114db57806114c78882611143565b8452602084019350506020810190506114b4565b5050509392505050565b5f82601f8301126114f9576114f8611312565b5b813561150984826020860161147d565b91505092915050565b5f5ffd5b5f67ffffffffffffffff8211156115305761152f611316565b5b611539826111e9565b9050602081019050919050565b828183375f83830152505050565b5f61156661156184611516565b611374565b90508281526020810184848401111561158257611581611512565b5b61158d848285611546565b509392505050565b5f82601f8301126115a9576115a8611312565b5b81356115b9848260208601611554565b91505092915050565b5f5f5f606084860312156115d9576115d861111c565b5b5f84013567ffffffffffffffff8111156115f6576115f5611120565b5b61160286828701611425565b935050602084013567ffffffffffffffff81111561162357611622611120565b5b61162f868287016114e5565b925050604084013567ffffffffffffffff8111156116505761164f611120565b5b61165c86828701611595565b9150509250925092565b5f81519050919050565b5f82825260208201905092915050565b5f819050602082019050919050565b611698816111a1565b82525050565b5f6116a9838361168f565b60208301905092915050565b5f602082019050919050565b5f6116cb82611666565b6116d58185611670565b93506116e083611680565b805f5b838110156117105781516116f7888261169e565b9750611702836116b5565b9250506001810190506116e3565b5085935050505092915050565b5f6020820190508181035f83015261173581846116c1565b905092915050565b5f82825260208201905092915050565b5f611757826111c1565b611761818561173d565b93506117718185602086016111db565b61177a816111e9565b840191505092915050565b61178e81611124565b82525050565b61179d81611240565b82525050565b5f608083015f8301516117b85f86018261168f565b50602083015184820360208601526117d0828261174d565b91505060408301516117e56040860182611785565b5060608301516117f86060860182611794565b508091505092915050565b5f6020820190508181035f83015261181b81846117a3565b905092915050565b5f5f604083850312156118395761183861111c565b5b5f611846858286016112ba565b925050602061185785828601611143565b9150509250929050565b5f81519050919050565b5f82825260208201905092915050565b5f819050602082019050919050565b604082015f82015161189e5f85018261168f565b5060208201516118b16020850182611785565b50505050565b5f6118c2838361188a565b60408301905092915050565b5f602082019050919050565b5f6118e482611861565b6118ee818561186b565b93506118f98361187b565b805f5b8381101561192957815161191088826118b7565b975061191b836118ce565b9250506001810190506118fc565b5085935050505092915050565b5f6020820190508181035f83015261194e81846118da565b905092915050565b5f5f6040838503121561196c5761196b61111c565b5b5f611979858286016112ba565b925050602083013567ffffffffffffffff81111561199a57611999611120565b5b6119a685828601611595565b9150509250929050565b5f6040820190506119c35f8301856111b2565b6119d06020830184611231565b9392505050565b7f4e487b71000000000000000000000000000000000000000000000000000000005f52602260045260245ffd5b5f6002820490506001821680611a1b57607f821691505b602082108103611a2e57611a2d6119d7565b5b50919050565b7f4f6e6c792061646d696e732063616e20706572666f726d2074686973206163745f8201527f696f6e0000000000000000000000000000000000000000000000000000000000602082015250565b5f611a8e6023836111cb565b9150611a9982611a34565b604082019050919050565b5f6020820190508181035f830152611abb81611a82565b9050919050565b7f4e487b71000000000000000000000000000000000000000000000000000000005f52603260045260245ffd5b7f417272617973206c656e677468206d69736d61746368000000000000000000005f82015250565b5f611b236016836111cb565b9150611b2e82611aef565b602082019050919050565b5f6020820190508181035f830152611b5081611b17565b9050919050565b5f81519050919050565b5f82825260208201905092915050565b5f819050602082019050919050565b5f611b8b8383611785565b60208301905092915050565b5f602082019050919050565b5f611bad82611b57565b611bb78185611b61565b9350611bc283611b71565b805f5b83811015611bf2578151611bd98882611b80565b9750611be483611b97565b925050600181019050611bc5565b5085935050505092915050565b5f6080820190508181035f830152611c1781876116c1565b90508181036020830152611c2b8186611ba3565b90508181036040830152611c3f81856111f9565b9050611c4e6060830184611231565b95945050505050565b7f4e487b71000000000000000000000000000000000000000000000000000000005f52601160045260245ffd5b5f611c8e82611124565b91507fffffffffffffffffffffffffffffffffffffffffffffffffffffffffffffffff8203611cc057611cbf611c57565b5b600182019050919050565b7f4e6f7420616e2061646d696e00000000000000000000000000000000000000005f82015250565b5f611cff600c836111cb565b9150611d0a82611ccb565b602082019050919050565b5f6020820190508181035f830152611d2c81611cf3565b9050919050565b7f41646d696e206e6f7420666f756e6400000000000000000000000000000000005f82015250565b5f611d67600f836111cb565b9150611d7282611d33565b602082019050919050565b5f6020820190508181035f830152611d9481611d5b565b9050919050565b5f611da582611124565b9150611db083611124565b9250828201905080821115611dc857611dc7611c57565b5b92915050565b7f416c72656164792061646d696e000000000000000000000000000000000000005f82015250565b5f611e02600d836111cb565b9150611e0d82611dce565b602082019050919050565b5f6020820190508181035f830152611e2f81611df6565b9050919050565b5f819050815f5260205f209050919050565b5f6020601f8301049050919050565b5f82821b905092915050565b5f60088302611e927fffffffffffffffffffffffffffffffffffffffffffffffffffffffffffffffff82611e57565b611e9c8683611e57565b95508019841693508086168417925050509392505050565b5f819050919050565b5f611ed7611ed2611ecd84611124565b611eb4565b611124565b9050919050565b5f819050919050565b611ef083611ebd565b611f04611efc82611ede565b848454611e63565b825550505050565b5f5f905090565b611f1b611f0c565b611f26818484611ee7565b505050565b5b81811015611f4957611f3e5f82611f13565b600181019050611f2c565b5050565b601f821115611f8e57611f5f81611e36565b611f6884611e48565b81016020851015611f77578190505b611f8b611f8385611e48565b830182611f2b565b50505b505050565b5f82821c905092915050565b5f611fae5f1984600802611f93565b1980831691505092915050565b5f611fc68383611f9f565b9150826002028217905092915050565b611fdf826111c1565b67ffffffffffffffff811115611ff857611ff7611316565b5b6120028254611a04565b61200d828285611f4d565b5f60209050601f83116001811461203e575f841561202c578287015190505b6120368582611fbb565b86555061209d565b601f19841661204c86611e36565b5f5b828110156120735784890151825560018201915060208501945060208101905061204e565b86831015612090578489015161208c601f891682611f9f565b8355505b6001600288020188555050505b50505050505056fea26469706673582212201346db5a0ddefad5edb56129102ca3c9641694b6e1bd5bbbdc975100113265ee64736f6c634300081c0033","linkReferences":{}},"methodIdentifiers":{"addAdmin(address,string)":"d16856ca","addPlayer(address,uint256)":"6fd075fc","admins(uint256)":"14bfd6d0","awardPointsBatch(address[],uint256[],string)":"30d625dc","getAdminByAddress(address)":"36440f45","getAdmins()":"31ae450b","getPlayers()":"8b5b9ccc","isAdmin(address)":"24d7806c","players(uint256)":"f71d96cb","removeAdmin(address)":"1785f53c","updatePlayerScore(address,uint256)":"93f5b241"},"id":16}