{"abi":[{"type":"constructor","inputs":[],"stateMutability":"nonpayable"},{"type":"function","name":"addAdmin","inputs":[{"name":"walletAddress","type":"address","internalType":"address"},{"name":"name","type":"string","internalType":"string"}],"outputs":[],"stateMutability":"nonpayable"},{"type":"function","name":"addPlayer","inputs":[{"name":"walletAddress","type":"address","internalType":"address"},{"name":"score","type":"uint256","internalType":"uint256"}],"outputs":[],"stateMutability":"nonpayable"},{"type":"function","name":"admins","inputs":[{"name":"","type":"uint256","internalType":"uint256"}],"outputs":[{"name":"walletAddress","type":"address","internalType":"address"},{"name":"name","type":"string","internalType":"string"},{"name":"joinDate","type":"uint256","internalType":"uint256"},{"name":"isActive","type":"bool","internalType":"bool"}],"stateMutability":"view"},{"type":"function","name":"getAdminByAddress","inputs":[{"name":"addr","type":"address","internalType":"address"}],"outputs":[{"name":"","type":"tuple","internalType":"struct FightOnChain.Admin","components":[{"name":"walletAddress","type":"address","internalType":"address"},{"name":"name","type":"string","internalType":"string"},{"name":"joinDate","type":"uint256","internalType":"uint256"},{"name":"isActive","type":"bool","internalType":"bool"}]}],"stateMutability":"view"},{"type":"function","name":"getAdmins","inputs":[],"outputs":[{"name":"","type":"address[]","internalType":"address[]"}],"stateMutability":"view"},{"type":"function","name":"isAdmin","inputs":[{"name":"","type":"address","internalType":"address"}],"outputs":[{"name":"","type":"bool","internalType":"bool"}],"stateMutability":"view"},{"type":"function","name":"players","inputs":[{"name":"","type":"uint256","internalType":"uint256"}],"outputs":[{"name":"walletAddress","type":"address","internalType":"address"},{"name":"score","type":"uint256","internalType":"uint256"}],"stateMutability":"view"},{"type":"function","name":"removeAdmin","inputs":[{"name":"walletAddress","type":"address","internalType":"address"}],"outputs":[],"stateMutability":"nonpayable"},{"type":"function","name":"updatePlayerScore","inputs":[{"name":"walletAddress","type":"address","internalType":"address"},{"name":"score","type":"uint256","internalType":"uint256"}],"outputs":[],"stateMutability":"nonpayable"}],"bytecode":{"object":"0x608060405234801561000f575f5ffd5b505f73e19496e993f05ec1b03d1d456df6b8227e50dea19050600160025f8373ffffffffffffffffffffffffffffffffffffffff1673ffffffffffffffffffffffffffffffffffffffff1681526020019081526020015f205f6101000a81548160ff0219169083151502179055505f60405180608001604052808373ffffffffffffffffffffffffffffffffffffffff1681526020016040518060400160405280600681526020017f5368726979610000000000000000000000000000000000000000000000000000815250815260200142815260200160011515815250908060018154018082558091505060019003905f5260205f2090600402015f909190919091505f820151815f015f6101000a81548173ffffffffffffffffffffffffffffffffffffffff021916908373ffffffffffffffffffffffffffffffffffffffff160217905550602082015181600101908161016c91906103db565b50604082015181600201556060820151816003015f6101000a81548160ff0219169083151502179055505050506104aa565b5f81519050919050565b7f4e487b71000000000000000000000000000000000000000000000000000000005f52604160045260245ffd5b7f4e487b71000000000000000000000000000000000000000000000000000000005f52602260045260245ffd5b5f600282049050600182168061021957607f821691505b60208210810361022c5761022b6101d5565b5b50919050565b5f819050815f5260205f209050919050565b5f6020601f8301049050919050565b5f82821b905092915050565b5f6008830261028e7fffffffffffffffffffffffffffffffffffffffffffffffffffffffffffffffff82610253565b6102988683610253565b95508019841693508086168417925050509392505050565b5f819050919050565b5f819050919050565b5f6102dc6102d76102d2846102b0565b6102b9565b6102b0565b9050919050565b5f819050919050565b6102f5836102c2565b610309610301826102e3565b84845461025f565b825550505050565b5f5f905090565b610320610311565b61032b8184846102ec565b505050565b5b8181101561034e576103435f82610318565b600181019050610331565b5050565b601f8211156103935761036481610232565b61036d84610244565b8101602085101561037c578190505b61039061038885610244565b830182610330565b50505b505050565b5f82821c905092915050565b5f6103b35f1984600802610398565b1980831691505092915050565b5f6103cb83836103a4565b9150826002028217905092915050565b6103e48261019e565b67ffffffffffffffff8111156103fd576103fc6101a8565b5b6104078254610202565b610412828285610352565b5f60209050601f831160018114610443575f8415610431578287015190505b61043b85826103c0565b8655506104a2565b601f19841661045186610232565b5f5b8281101561047857848901518255600182019150602085019450602081019050610453565b868310156104955784890151610491601f8916826103a4565b8355505b6001600288020188555050505b505050505050565b6119cc806104b75f395ff3fe608060405234801561000f575f5ffd5b5060043610610091575f3560e01c806336440f451161006457806336440f45146101325780636fd075fc1461016257806393f5b2411461017e578063d16856ca1461019a578063f71d96cb146101b657610091565b806314bfd6d0146100955780631785f53c146100c857806324d7806c146100e457806331ae450b14610114575b5f5ffd5b6100af60048036038101906100aa9190610ecd565b6101e7565b6040516100bf9493929190610fd0565b60405180910390f35b6100e260048036038101906100dd9190611044565b6102d2565b005b6100fe60048036038101906100f99190611044565b61047e565b60405161010b919061106f565b60405180910390f35b61011c61049b565b604051610129919061113f565b60405180910390f35b61014c60048036038101906101479190611044565b61064c565b6040516101599190611225565b60405180910390f35b61017c60048036038101906101779190611245565b610921565b005b61019860048036038101906101939190611245565b610a51565b005b6101b460048036038101906101af91906113af565b610bac565b005b6101d060048036038101906101cb9190610ecd565b610dfe565b6040516101de929190611409565b60405180910390f35b5f81815481106101f5575f80fd5b905f5260205f2090600402015f91509050805f015f9054906101000a900473ffffffffffffffffffffffffffffffffffffffff16908060010180546102399061145d565b80601f01602080910402602001604051908101604052809291908181526020018280546102659061145d565b80156102b05780601f10610287576101008083540402835291602001916102b0565b820191905f5260205f20905b81548152906001019060200180831161029357829003601f168201915b505050505090806002015490806003015f9054906101000a900460ff16905084565b60025f3373ffffffffffffffffffffffffffffffffffffffff1673ffffffffffffffffffffffffffffffffffffffff1681526020019081526020015f205f9054906101000a900460ff1661035b576040517f08c379a0000000000000000000000000000000000000000000000000000000008152600401610352906114fd565b60405180910390fd5b5f60025f8373ffffffffffffffffffffffffffffffffffffffff1673ffffffffffffffffffffffffffffffffffffffff1681526020019081526020015f205f6101000a81548160ff0219169083151502179055505f5f90505b5f8054905081101561047a578173ffffffffffffffffffffffffffffffffffffffff165f82815481106103ea576103e961151b565b5b905f5260205f2090600402015f015f9054906101000a900473ffffffffffffffffffffffffffffffffffffffff1673ffffffffffffffffffffffffffffffffffffffff160361046d575f5f82815481106104475761044661151b565b5b905f5260205f2090600402016003015f6101000a81548160ff0219169083151502179055505b80806001019150506103b4565b5050565b6002602052805f5260405f205f915054906101000a900460ff1681565b60605f5f90505f5f90505b5f80549050811015610502575f81815481106104c5576104c461151b565b5b905f5260205f2090600402016003015f9054906101000a900460ff16156104f55781806104f190611575565b9250505b80806001019150506104a6565b505f8167ffffffffffffffff81111561051e5761051d61128b565b5b60405190808252806020026020018201604052801561054c5781602001602082028036833780820191505090505b5090505f5f90505f5f90505b5f80549050811015610642575f81815481106105775761057661151b565b5b905f5260205f2090600402016003015f9054906101000a900460ff1615610635575f81815481106105ab576105aa61151b565b5b905f5260205f2090600402015f015f9054906101000a900473ffffffffffffffffffffffffffffffffffffffff168383815181106105ec576105eb61151b565b5b602002602001019073ffffffffffffffffffffffffffffffffffffffff16908173ffffffffffffffffffffffffffffffffffffffff1681525050818061063190611575565b9250505b8080600101915050610558565b5081935050505090565b610654610e4c565b60025f8373ffffffffffffffffffffffffffffffffffffffff1673ffffffffffffffffffffffffffffffffffffffff1681526020019081526020015f205f9054906101000a900460ff166106dd576040517f08c379a00000000000000000000000000000000000000000000000000000000081526004016106d490611606565b60405180910390fd5b5f5f90505b5f805490508110156108e0578273ffffffffffffffffffffffffffffffffffffffff165f82815481106107185761071761151b565b5b905f5260205f2090600402015f015f9054906101000a900473ffffffffffffffffffffffffffffffffffffffff1673ffffffffffffffffffffffffffffffffffffffff1614801561079457505f81815481106107775761077661151b565b5b905f5260205f2090600402016003015f9054906101000a900460ff165b156108d3575f81815481106107ac576107ab61151b565b5b905f5260205f2090600402016040518060800160405290815f82015f9054906101000a900473ffffffffffffffffffffffffffffffffffffffff1673ffffffffffffffffffffffffffffffffffffffff1673ffffffffffffffffffffffffffffffffffffffff1681526020016001820180546108279061145d565b80601f01602080910402602001604051908101604052809291908181526020018280546108539061145d565b801561089e5780601f106108755761010080835404028352916020019161089e565b820191905f5260205f20905b81548152906001019060200180831161088157829003601f168201915b5050505050815260200160028201548152602001600382015f9054906101000a900460ff16151515158152505091505061091c565b80806001019150506106e2565b506040517f08c379a00000000000000000000000000000000000000000000000000000000081526004016109139061166e565b60405180910390fd5b919050565b60025f3373ffffffffffffffffffffffffffffffffffffffff1673ffffffffffffffffffffffffffffffffffffffff1681526020019081526020015f205f9054906101000a900460ff166109aa576040517f08c379a00000000000000000000000000000000000000000000000000000000081526004016109a1906114fd565b60405180910390fd5b600160405180604001604052808473ffffffffffffffffffffffffffffffffffffffff16815260200183815250908060018154018082558091505060019003905f5260205f2090600202015f909190919091505f820151815f015f6101000a81548173ffffffffffffffffffffffffffffffffffffffff021916908373ffffffffffffffffffffffffffffffffffffffff1602179055506020820151816001015550505050565b60025f3373ffffffffffffffffffffffffffffffffffffffff1673ffffffffffffffffffffffffffffffffffffffff1681526020019081526020015f205f9054906101000a900460ff16610ada576040517f08c379a0000000000000000000000000000000000000000000000000000000008152600401610ad1906114fd565b60405180910390fd5b5f5f90505b600180549050811015610ba7578273ffffffffffffffffffffffffffffffffffffffff1660018281548110610b1757610b1661151b565b5b905f5260205f2090600202015f015f9054906101000a900473ffffffffffffffffffffffffffffffffffffffff1673ffffffffffffffffffffffffffffffffffffffff1603610b9a578160018281548110610b7557610b7461151b565b5b905f5260205f2090600202016001015f828254610b92919061168c565b925050819055505b8080600101915050610adf565b505050565b60025f3373ffffffffffffffffffffffffffffffffffffffff1673ffffffffffffffffffffffffffffffffffffffff1681526020019081526020015f205f9054906101000a900460ff16610c35576040517f08c379a0000000000000000000000000000000000000000000000000000000008152600401610c2c906114fd565b60405180910390fd5b60025f8373ffffffffffffffffffffffffffffffffffffffff1673ffffffffffffffffffffffffffffffffffffffff1681526020019081526020015f205f9054906101000a900460ff1615610cbf576040517f08c379a0000000000000000000000000000000000000000000000000000000008152600401610cb690611709565b60405180910390fd5b600160025f8473ffffffffffffffffffffffffffffffffffffffff1673ffffffffffffffffffffffffffffffffffffffff1681526020019081526020015f205f6101000a81548160ff0219169083151502179055505f60405180608001604052808473ffffffffffffffffffffffffffffffffffffffff16815260200183815260200142815260200160011515815250908060018154018082558091505060019003905f5260205f2090600402015f909190919091505f820151815f015f6101000a81548173ffffffffffffffffffffffffffffffffffffffff021916908373ffffffffffffffffffffffffffffffffffffffff1602179055506020820151816001019081610dce91906118c7565b50604082015181600201556060820151816003015f6101000a81548160ff02191690831515021790555050505050565b60018181548110610e0d575f80fd5b905f5260205f2090600202015f91509050805f015f9054906101000a900473ffffffffffffffffffffffffffffffffffffffff16908060010154905082565b60405180608001604052805f73ffffffffffffffffffffffffffffffffffffffff168152602001606081526020015f81526020015f151581525090565b5f604051905090565b5f5ffd5b5f5ffd5b5f819050919050565b610eac81610e9a565b8114610eb6575f5ffd5b50565b5f81359050610ec781610ea3565b92915050565b5f60208284031215610ee257610ee1610e92565b5b5f610eef84828501610eb9565b91505092915050565b5f73ffffffffffffffffffffffffffffffffffffffff82169050919050565b5f610f2182610ef8565b9050919050565b610f3181610f17565b82525050565b5f81519050919050565b5f82825260208201905092915050565b8281835e5f83830152505050565b5f601f19601f8301169050919050565b5f610f7982610f37565b610f838185610f41565b9350610f93818560208601610f51565b610f9c81610f5f565b840191505092915050565b610fb081610e9a565b82525050565b5f8115159050919050565b610fca81610fb6565b82525050565b5f608082019050610fe35f830187610f28565b8181036020830152610ff58186610f6f565b90506110046040830185610fa7565b6110116060830184610fc1565b95945050505050565b61102381610f17565b811461102d575f5ffd5b50565b5f8135905061103e8161101a565b92915050565b5f6020828403121561105957611058610e92565b5b5f61106684828501611030565b91505092915050565b5f6020820190506110825f830184610fc1565b92915050565b5f81519050919050565b5f82825260208201905092915050565b5f819050602082019050919050565b6110ba81610f17565b82525050565b5f6110cb83836110b1565b60208301905092915050565b5f602082019050919050565b5f6110ed82611088565b6110f78185611092565b9350611102836110a2565b805f5b8381101561113257815161111988826110c0565b9750611124836110d7565b925050600181019050611105565b5085935050505092915050565b5f6020820190508181035f83015261115781846110e3565b905092915050565b5f82825260208201905092915050565b5f61117982610f37565b611183818561115f565b9350611193818560208601610f51565b61119c81610f5f565b840191505092915050565b6111b081610e9a565b82525050565b6111bf81610fb6565b82525050565b5f608083015f8301516111da5f8601826110b1565b50602083015184820360208601526111f2828261116f565b915050604083015161120760408601826111a7565b50606083015161121a60608601826111b6565b508091505092915050565b5f6020820190508181035f83015261123d81846111c5565b905092915050565b5f5f6040838503121561125b5761125a610e92565b5b5f61126885828601611030565b925050602061127985828601610eb9565b9150509250929050565b5f5ffd5b5f5ffd5b7f4e487b71000000000000000000000000000000000000000000000000000000005f52604160045260245ffd5b6112c182610f5f565b810181811067ffffffffffffffff821117156112e0576112df61128b565b5b80604052505050565b5f6112f2610e89565b90506112fe82826112b8565b919050565b5f67ffffffffffffffff82111561131d5761131c61128b565b5b61132682610f5f565b9050602081019050919050565b828183375f83830152505050565b5f61135361134e84611303565b6112e9565b90508281526020810184848401111561136f5761136e611287565b5b61137a848285611333565b509392505050565b5f82601f83011261139657611395611283565b5b81356113a6848260208601611341565b91505092915050565b5f5f604083850312156113c5576113c4610e92565b5b5f6113d285828601611030565b925050602083013567ffffffffffffffff8111156113f3576113f2610e96565b5b6113ff85828601611382565b9150509250929050565b5f60408201905061141c5f830185610f28565b6114296020830184610fa7565b9392505050565b7f4e487b71000000000000000000000000000000000000000000000000000000005f52602260045260245ffd5b5f600282049050600182168061147457607f821691505b60208210810361148757611486611430565b5b50919050565b7f4f6e6c792061646d696e732063616e20706572666f726d2074686973206163745f8201527f696f6e0000000000000000000000000000000000000000000000000000000000602082015250565b5f6114e7602383610f41565b91506114f28261148d565b604082019050919050565b5f6020820190508181035f830152611514816114db565b9050919050565b7f4e487b71000000000000000000000000000000000000000000000000000000005f52603260045260245ffd5b7f4e487b71000000000000000000000000000000000000000000000000000000005f52601160045260245ffd5b5f61157f82610e9a565b91507fffffffffffffffffffffffffffffffffffffffffffffffffffffffffffffffff82036115b1576115b0611548565b5b600182019050919050565b7f4e6f7420616e2061646d696e00000000000000000000000000000000000000005f82015250565b5f6115f0600c83610f41565b91506115fb826115bc565b602082019050919050565b5f6020820190508181035f83015261161d816115e4565b9050919050565b7f41646d696e206e6f7420666f756e6400000000000000000000000000000000005f82015250565b5f611658600f83610f41565b915061166382611624565b602082019050919050565b5f6020820190508181035f8301526116858161164c565b9050919050565b5f61169682610e9a565b91506116a183610e9a565b92508282019050808211156116b9576116b8611548565b5b92915050565b7f416c72656164792061646d696e000000000000000000000000000000000000005f82015250565b5f6116f3600d83610f41565b91506116fe826116bf565b602082019050919050565b5f6020820190508181035f830152611720816116e7565b9050919050565b5f819050815f5260205f209050919050565b5f6020601f8301049050919050565b5f82821b905092915050565b5f600883026117837fffffffffffffffffffffffffffffffffffffffffffffffffffffffffffffffff82611748565b61178d8683611748565b95508019841693508086168417925050509392505050565b5f819050919050565b5f6117c86117c36117be84610e9a565b6117a5565b610e9a565b9050919050565b5f819050919050565b6117e1836117ae565b6117f56117ed826117cf565b848454611754565b825550505050565b5f5f905090565b61180c6117fd565b6118178184846117d8565b505050565b5b8181101561183a5761182f5f82611804565b60018101905061181d565b5050565b601f82111561187f5761185081611727565b61185984611739565b81016020851015611868578190505b61187c61187485611739565b83018261181c565b50505b505050565b5f82821c905092915050565b5f61189f5f1984600802611884565b1980831691505092915050565b5f6118b78383611890565b9150826002028217905092915050565b6118d082610f37565b67ffffffffffffffff8111156118e9576118e861128b565b5b6118f3825461145d565b6118fe82828561183e565b5f60209050601f83116001811461192f575f841561191d578287015190505b61192785826118ac565b86555061198e565b601f19841661193d86611727565b5f5b828110156119645784890151825560018201915060208501945060208101905061193f565b86831015611981578489015161197d601f891682611890565b8355505b6001600288020188555050505b50505050505056fea2646970667358221220d9c178ad2ed291b960a59efa6d013dd242a49375da8e282b04b421cab74ff20264736f6c634300081c0033","linkReferences":{}},"methodIdentifiers":{"addAdmin(address,string)":"d16856ca","addPlayer(address,uint256)":"6fd075fc","admins(uint256)":"14bfd6d0","getAdminByAddress(address)":"36440f45","getAdmins()":"31ae450b","isAdmin(address)":"24d7806c","players(uint256)":"f71d96cb","removeAdmin(address)":"1785f53c","updatePlayerScore(address,uint256)":"93f5b241"},"id":16}